tcpdump: verbose output suppressed, use -v or -vv for full protocol decode
listening on h2-eth0, link-type EN10MB (Ethernet), capture size 65535 bytes
02:16:41.739195 IP6 :: > ff02::1:ff10:6583: ICMP6, neighbor solicitation, who has fe80::8419:98ff:fe10:6583, length 24
	0x0000:  6000 0000 0018 3aff 0000 0000 0000 0000  `.....:.........
	0x0010:  0000 0000 0000 0000 ff02 0000 0000 0000  ................
	0x0020:  0000 0001 ff10 6583 8700 95e6 0000 0000  ......e.........
	0x0030:  fe80 0000 0000 0000 8419 98ff fe10 6583  ..............e.
02:16:41.739613 ARP, Request who-has 10.0.0.10 tell 10.0.0.2, length 28
	0x0000:  0001 0800 0604 0001 0000 0000 0002 0a00  ................
	0x0010:  0002 0000 0000 0000 0a00 000a            ............
02:16:41.745520 ARP, Reply 10.0.0.10 is-at 00:00:00:00:00:10 (oui Ethernet), length 28
	0x0000:  0001 0800 0604 0002 0000 0000 0010 0a00  ................
	0x0010:  000a 0000 0000 0002 0a00 0002            ............
02:16:41.745525 IP 10.0.0.2.34511 > 10.0.0.10.domain: 54968+ PTR? 3.8.5.6.0.1.f.f.1.0.0.0.0.0.0.0.0.0.0.0.0.0.0.0.0.0.0.0.2.0.f.f.ip6.arpa. (90)
	0x0000:  4500 0076 687f 4000 4011 bdec 0a00 0002  E..vh.@.@.......
	0x0010:  0a00 000a 86cf 0035 0062 19f0 d6b8 0100  .......5.b......
	0x0020:  0001 0000 0000 0000 0133 0138 0135 0136  .........3.8.5.6
	0x0030:  0130 0131 0166 0166 0131 0130 0130 0130  .0.1.f.f.1.0.0.0
	0x0040:  0130 0130 0130 0130 0130 0130 0130 0130  .0.0.0.0.0.0.0.0
	0x0050:  0130 0130 0130 0130 0130 0130 0130 0130  .0.0.0.0.0.0.0.0
	0x0060:  0132 0130 0166 0166 0369 7036 0461 7270  .2.0.f.f.ip6.arp
	0x0070:  6100 000c 0001                           a.....
02:16:42.199155 IP6 :: > ff02::16: HBH ICMP6, multicast listener report v2, 1 group record(s), length 28
	0x0000:  6000 0000 0024 0001 0000 0000 0000 0000  `....$..........
	0x0010:  0000 0000 0000 0000 ff02 0000 0000 0000  ................
	0x0020:  0000 0000 0000 0016 3a00 0502 0000 0100  ........:.......
	0x0030:  8f00 6f88 0000 0001 0400 0000 ff02 0000  ..o.............
	0x0040:  0000 0000 0000 0001 ff00 0002            ............
02:16:42.371165 IP6 :: > ff02::1:ff00:2: ICMP6, neighbor solicitation, who has fe80::200:ff:fe00:2, length 24
	0x0000:  6000 0000 0018 3aff 0000 0000 0000 0000  `.....:.........
	0x0010:  0000 0000 0000 0000 ff02 0000 0000 0000  ................
	0x0020:  0000 0001 ff00 0002 8700 7b23 0000 0000  ..........{#....
	0x0030:  fe80 0000 0000 0000 0200 00ff fe00 0002  ................
02:16:42.739186 IP6 fe80::8419:98ff:fe10:6583 > ip6-allrouters: ICMP6, router solicitation, length 16
	0x0000:  6000 0000 0010 3aff fe80 0000 0000 0000  `.....:.........
	0x0010:  8419 98ff fe10 6583 ff02 0000 0000 0000  ......e.........
	0x0020:  0000 0000 0000 0002 8500 77d3 0000 0000  ..........w.....
	0x0030:  0101 8619 9810 6583                      ......e.
02:16:43.371197 IP6 fe80::200:ff:fe00:2 > ip6-allrouters: ICMP6, router solicitation, length 16
	0x0000:  6000 0000 0010 3aff fe80 0000 0000 0000  `.....:.........
	0x0010:  0200 00ff fe00 0002 ff02 0000 0000 0000  ................
	0x0020:  0000 0000 0000 0002 8500 7b2a 0000 0000  ..........{*....
	0x0030:  0101 0000 0000 0002                      ........
02:16:46.744919 IP 10.0.0.2.42537 > 10.0.0.10.domain: 54968+ PTR? 3.8.5.6.0.1.f.f.1.0.0.0.0.0.0.0.0.0.0.0.0.0.0.0.0.0.0.0.2.0.f.f.ip6.arpa. (90)
	0x0000:  4500 0076 6d62 4000 4011 b909 0a00 0002  E..vmb@.@.......
	0x0010:  0a00 000a a629 0035 0062 fa95 d6b8 0100  .....).5.b......
	0x0020:  0001 0000 0000 0000 0133 0138 0135 0136  .........3.8.5.6
	0x0030:  0130 0131 0166 0166 0131 0130 0130 0130  .0.1.f.f.1.0.0.0
	0x0040:  0130 0130 0130 0130 0130 0130 0130 0130  .0.0.0.0.0.0.0.0
	0x0050:  0130 0130 0130 0130 0130 0130 0130 0130  .0.0.0.0.0.0.0.0
	0x0060:  0132 0130 0166 0166 0369 7036 0461 7270  .2.0.f.f.ip6.arp
	0x0070:  6100 000c 0001                           a.....
02:16:46.751145 IP6 fe80::8419:98ff:fe10:6583 > ip6-allrouters: ICMP6, router solicitation, length 16
	0x0000:  6000 0000 0010 3aff fe80 0000 0000 0000  `.....:.........
	0x0010:  8419 98ff fe10 6583 ff02 0000 0000 0000  ......e.........
	0x0020:  0000 0000 0000 0002 8500 77d3 0000 0000  ..........w.....
	0x0030:  0101 8619 9810 6583                      ......e.
02:16:47.375163 IP6 fe80::200:ff:fe00:2 > ip6-allrouters: ICMP6, router solicitation, length 16
	0x0000:  6000 0000 0010 3aff fe80 0000 0000 0000  `.....:.........
	0x0010:  0200 00ff fe00 0002 ff02 0000 0000 0000  ................
	0x0020:  0000 0000 0000 0002 8500 7b2a 0000 0000  ..........{*....
	0x0030:  0101 0000 0000 0002                      ........
02:16:48.079224 IP6 fe80::8419:98ff:fe10:6583 > ff02::16: HBH ICMP6, multicast listener report v2, 1 group record(s), length 28
	0x0000:  6000 0000 0024 0001 fe80 0000 0000 0000  `....$..........
	0x0010:  8419 98ff fe10 6583 ff02 0000 0000 0000  ......e.........
	0x0020:  0000 0000 0000 0016 3a00 0502 0000 0100  ........:.......
	0x0030:  8f00 8ac8 0000 0001 0400 0000 ff02 0000  ................
	0x0040:  0000 0000 0000 0001 ff10 6583            ..........e.
02:16:50.759153 IP6 fe80::8419:98ff:fe10:6583 > ip6-allrouters: ICMP6, router solicitation, length 16
	0x0000:  6000 0000 0010 3aff fe80 0000 0000 0000  `.....:.........
	0x0010:  8419 98ff fe10 6583 ff02 0000 0000 0000  ......e.........
	0x0020:  0000 0000 0000 0002 8500 77d3 0000 0000  ..........w.....
	0x0030:  0101 8619 9810 6583                      ......e.
02:16:51.383525 IP6 fe80::200:ff:fe00:2 > ip6-allrouters: ICMP6, router solicitation, length 16
	0x0000:  6000 0000 0010 3aff fe80 0000 0000 0000  `.....:.........
	0x0010:  0200 00ff fe00 0002 ff02 0000 0000 0000  ................
	0x0020:  0000 0000 0000 0002 8500 7b2a 0000 0000  ..........{*....
	0x0030:  0101 0000 0000 0002                      ........
02:16:51.750181 IP 10.0.0.2.46626 > 10.0.0.10.domain: 44852+ PTR? 3.8.5.6.0.1.e.f.f.f.8.9.9.1.4.8.0.0.0.0.0.0.0.0.0.0.0.0.0.8.e.f.ip6.arpa. (90)
	0x0000:  4500 0076 7245 4000 4011 b426 0a00 0002  E..vrE@.@..&....
	0x0010:  0a00 000a b622 0035 0062 118b af34 0100  .....".5.b...4..
	0x0020:  0001 0000 0000 0000 0133 0138 0135 0136  .........3.8.5.6
	0x0030:  0130 0131 0165 0166 0166 0166 0138 0139  .0.1.e.f.f.f.8.9
	0x0040:  0139 0131 0134 0138 0130 0130 0130 0130  .9.1.4.8.0.0.0.0
	0x0050:  0130 0130 0130 0130 0130 0130 0130 0130  .0.0.0.0.0.0.0.0
	0x0060:  0130 0138 0165 0166 0369 7036 0461 7270  .0.8.e.f.ip6.arp
	0x0070:  6100 000c 0001                           a.....
02:16:56.755315 IP 10.0.0.2.36231 > 10.0.0.10.domain: 44852+ PTR? 3.8.5.6.0.1.e.f.f.f.8.9.9.1.4.8.0.0.0.0.0.0.0.0.0.0.0.0.0.8.e.f.ip6.arpa. (90)
	0x0000:  4500 0076 7729 4000 4011 af42 0a00 0002  E..vw)@.@..B....
	0x0010:  0a00 000a 8d87 0035 0062 3a26 af34 0100  .......5.b:&.4..
	0x0020:  0001 0000 0000 0000 0133 0138 0135 0136  .........3.8.5.6
	0x0030:  0130 0131 0165 0166 0166 0166 0138 0139  .0.1.e.f.f.f.8.9
	0x0040:  0139 0131 0134 0138 0130 0130 0130 0130  .9.1.4.8.0.0.0.0
	0x0050:  0130 0130 0130 0130 0130 0130 0130 0130  .0.0.0.0.0.0.0.0
	0x0060:  0130 0138 0165 0166 0369 7036 0461 7270  .0.8.e.f.ip6.arp
	0x0070:  6100 000c 0001                           a.....
02:17:01.760636 IP 10.0.0.2.34161 > 10.0.0.10.domain: 6665+ PTR? 10.0.0.10.in-addr.arpa. (40)
	0x0000:  4500 0044 7c0c 4000 4011 aa91 0a00 0002  E..D|.@.@.......
	0x0010:  0a00 000a 8571 0035 0030 7420 1a09 0100  .....q.5.0t.....
	0x0020:  0001 0000 0000 0000 0231 3001 3001 3002  .........10.0.0.
	0x0030:  3130 0769 6e2d 6164 6472 0461 7270 6100  10.in-addr.arpa.
	0x0040:  000c 0001                                ....
02:17:06.765789 IP 10.0.0.2.58450 > 10.0.0.10.domain: 6665+ PTR? 10.0.0.10.in-addr.arpa. (40)
	0x0000:  4500 0044 80ef 4000 4011 a5ae 0a00 0002  E..D..@.@.......
	0x0010:  0a00 000a e452 0035 0030 153f 1a09 0100  .....R.5.0.?....
	0x0020:  0001 0000 0000 0000 0231 3001 3001 3002  .........10.0.0.
	0x0030:  3130 0769 6e2d 6164 6472 0461 7270 6100  10.in-addr.arpa.
	0x0040:  000c 0001                                ....
02:17:11.771050 IP 10.0.0.2.38508 > 10.0.0.10.domain: 63440+ PTR? 2.0.0.10.in-addr.arpa. (39)
	0x0000:  4500 0043 85d2 4000 4011 a0cc 0a00 0002  E..C..@.@.......
	0x0010:  0a00 000a 966c 0035 002f da3a f7d0 0100  .....l.5./.:....
	0x0020:  0001 0000 0000 0000 0132 0130 0130 0231  .........2.0.0.1
	0x0030:  3007 696e 2d61 6464 7204 6172 7061 0000  0.in-addr.arpa..
	0x0040:  0c00 01                                  ...
02:17:16.776219 IP 10.0.0.2.54223 > 10.0.0.10.domain: 63440+ PTR? 2.0.0.10.in-addr.arpa. (39)
	0x0000:  4500 0043 8ab6 4000 4011 9be8 0a00 0002  E..C..@.@.......
	0x0010:  0a00 000a d3cf 0035 002f 9cd7 f7d0 0100  .......5./......
	0x0020:  0001 0000 0000 0000 0132 0130 0130 0231  .........2.0.0.1
	0x0030:  3007 696e 2d61 6464 7204 6172 7061 0000  0.in-addr.arpa..
	0x0040:  0c00 01                                  ...
02:17:21.781620 IP 10.0.0.2.34831 > 10.0.0.10.domain: 7297+ PTR? 6.1.0.0.0.0.0.0.0.0.0.0.0.0.0.0.0.0.0.0.0.0.0.0.0.0.0.0.2.0.f.f.ip6.arpa. (90)
	0x0000:  4500 0076 8f99 4000 4011 96d2 0a00 0002  E..v..@.@.......
	0x0010:  0a00 000a 880f 0035 0062 d364 1c81 0100  .......5.b.d....
	0x0020:  0001 0000 0000 0000 0136 0131 0130 0130  .........6.1.0.0
	0x0030:  0130 0130 0130 0130 0130 0130 0130 0130  .0.0.0.0.0.0.0.0
	0x0040:  0130 0130 0130 0130 0130 0130 0130 0130  .0.0.0.0.0.0.0.0
	0x0050:  0130 0130 0130 0130 0130 0130 0130 0130  .0.0.0.0.0.0.0.0
	0x0060:  0132 0130 0166 0166 0369 7036 0461 7270  .2.0.f.f.ip6.arp
	0x0070:  6100 000c 0001                           a.....
02:17:21.791165 ARP, Request who-has 10.0.0.10 tell 10.0.0.2, length 28
	0x0000:  0001 0800 0604 0001 0000 0000 0002 0a00  ................
	0x0010:  0002 0000 0000 0000 0a00 000a            ............
02:17:21.811205 ARP, Reply 10.0.0.10 is-at 00:00:00:00:00:10 (oui Ethernet), length 28
	0x0000:  0001 0800 0604 0002 0000 0000 0010 0a00  ................
	0x0010:  000a 0000 0000 0002 0a00 0002            ............
02:17:26.783494 IP 10.0.0.2.37881 > 10.0.0.10.domain: 7297+ PTR? 6.1.0.0.0.0.0.0.0.0.0.0.0.0.0.0.0.0.0.0.0.0.0.0.0.0.0.0.2.0.f.f.ip6.arpa. (90)
	0x0000:  4500 0076 947c 4000 4011 91ef 0a00 0002  E..v.|@.@.......
	0x0010:  0a00 000a 93f9 0035 0062 c77a 1c81 0100  .......5.b.z....
	0x0020:  0001 0000 0000 0000 0136 0131 0130 0130  .........6.1.0.0
	0x0030:  0130 0130 0130 0130 0130 0130 0130 0130  .0.0.0.0.0.0.0.0
	0x0040:  0130 0130 0130 0130 0130 0130 0130 0130  .0.0.0.0.0.0.0.0
	0x0050:  0130 0130 0130 0130 0130 0130 0130 0130  .0.0.0.0.0.0.0.0
	0x0060:  0132 0130 0166 0166 0369 7036 0461 7270  .2.0.f.f.ip6.arp
	0x0070:  6100 000c 0001                           a.....
02:17:31.788879 IP 10.0.0.2.38710 > 10.0.0.10.domain: 14786+ PTR? 2.0.0.0.0.0.f.f.1.0.0.0.0.0.0.0.0.0.0.0.0.0.0.0.0.0.0.0.2.0.f.f.ip6.arpa. (90)
	0x0000:  4500 0076 995f 4000 4011 8d0c 0a00 0002  E..v._@.@.......
	0x0010:  0a00 000a 9736 0035 0062 a694 39c2 0100  .....6.5.b..9...
	0x0020:  0001 0000 0000 0000 0132 0130 0130 0130  .........2.0.0.0
	0x0030:  0130 0130 0166 0166 0131 0130 0130 0130  .0.0.f.f.1.0.0.0
	0x0040:  0130 0130 0130 0130 0130 0130 0130 0130  .0.0.0.0.0.0.0.0
	0x0050:  0130 0130 0130 0130 0130 0130 0130 0130  .0.0.0.0.0.0.0.0
	0x0060:  0132 0130 0166 0166 0369 7036 0461 7270  .2.0.f.f.ip6.arp
	0x0070:  6100 000c 0001                           a.....
02:17:33.798765 IP 10.0.0.2.43701 > 10.0.0.10.domain: 30140+ A? target. (24)
	0x0000:  4500 0034 9b55 4000 4011 8b58 0a00 0002  E..4.U@.@..X....
	0x0010:  0a00 000a aab5 0035 0020 86ac 75bc 0100  .......5....u...
	0x0020:  0001 0000 0000 0000 0674 6172 6765 7400  .........target.
	0x0030:  0001 0001                                ....
02:17:33.821651 IP 10.0.0.10.domain > 10.0.0.2.43701: 30140*- 1/0/0 A 10.186.149.177 (40)
	0x0000:  4500 0044 9b55 4000 4011 8b48 0a00 000a  E..D.U@.@..H....
	0x0010:  0a00 0002 0035 aab5 0030 a30b 75bc 8400  .....5...0..u...
	0x0020:  0001 0001 0000 0000 0674 6172 6765 7400  .........target.
	0x0030:  0001 0001 c00c 0001 0001 0000 0001 0004  ................
	0x0040:  0aba 95b1                                ....
02:17:33.821827 ARP, Request who-has 10.186.149.177 tell 10.0.0.2, length 28
	0x0000:  0001 0800 0604 0001 0000 0000 0002 0a00  ................
	0x0010:  0002 0000 0000 0000 0aba 95b1            ............
02:17:33.859303 ARP, Reply 10.186.149.177 is-at 00:00:00:00:00:03 (oui Ethernet), length 28
	0x0000:  0001 0800 0604 0002 0000 0000 0003 0aba  ................
	0x0010:  95b1 0000 0000 0002 0a00 0002            ............
02:17:33.859311 IP 10.0.0.2 > 10.186.149.177: ICMP echo request, id 4831, seq 1, length 64
	0x0000:  4500 0054 0000 4000 4001 903c 0a00 0002  E..T..@.@..<....
	0x0010:  0aba 95b1 0800 f4ba 12df 0001 adb5 3e52  ..............>R
	0x0020:  0000 0000 398a 0c00 0000 0000 1011 1213  ....9...........
	0x0030:  1415 1617 1819 1a1b 1c1d 1e1f 2021 2223  .............!"#
	0x0040:  2425 2627 2829 2a2b 2c2d 2e2f 3031 3233  $%&'()*+,-./0123
	0x0050:  3435 3637                                4567
02:17:33.888868 IP 10.186.149.177 > 10.0.0.2: ICMP echo reply, id 4831, seq 1, length 64
	0x0000:  4500 0054 fcad 0000 4001 d38e 0aba 95b1  E..T....@.......
	0x0010:  0a00 0002 0000 fcba 12df 0001 adb5 3e52  ..............>R
	0x0020:  0000 0000 398a 0c00 0000 0000 1011 1213  ....9...........
	0x0030:  1415 1617 1819 1a1b 1c1d 1e1f 2021 2223  .............!"#
	0x0040:  2425 2627 2829 2a2b 2c2d 2e2f 3031 3233  $%&'()*+,-./0123
	0x0050:  3435 3637                                4567
02:17:33.889057 IP 10.0.0.2.46527 > 10.0.0.10.domain: 27114+ PTR? 177.149.186.10.in-addr.arpa. (45)
	0x0000:  4500 0049 9b6c 4000 4011 8b2c 0a00 0002  E..I.l@.@..,....
	0x0010:  0a00 000a b5bf 0035 0035 9f1a 69ea 0100  .......5.5..i...
	0x0020:  0001 0000 0000 0000 0331 3737 0331 3439  .........177.149
	0x0030:  0331 3836 0231 3007 696e 2d61 6464 7204  .186.10.in-addr.
	0x0040:  6172 7061 0000 0c00 01                   arpa.....
02:17:36.794028 IP 10.0.0.2.43904 > 10.0.0.10.domain: 14786+ PTR? 2.0.0.0.0.0.f.f.1.0.0.0.0.0.0.0.0.0.0.0.0.0.0.0.0.0.0.0.2.0.f.f.ip6.arpa. (90)
	0x0000:  4500 0076 9e42 4000 4011 8829 0a00 0002  E..v.B@.@..)....
	0x0010:  0a00 000a ab80 0035 0062 924a 39c2 0100  .......5.b.J9...
	0x0020:  0001 0000 0000 0000 0132 0130 0130 0130  .........2.0.0.0
	0x0030:  0130 0130 0166 0166 0131 0130 0130 0130  .0.0.f.f.1.0.0.0
	0x0040:  0130 0130 0130 0130 0130 0130 0130 0130  .0.0.0.0.0.0.0.0
	0x0050:  0130 0130 0130 0130 0130 0130 0130 0130  .0.0.0.0.0.0.0.0
	0x0060:  0132 0130 0166 0166 0369 7036 0461 7270  .2.0.f.f.ip6.arp
	0x0070:  6100 000c 0001                           a.....
02:17:38.894191 IP 10.0.0.2.35048 > 10.0.0.10.domain: 27114+ PTR? 177.149.186.10.in-addr.arpa. (45)
	0x0000:  4500 0049 a04f 4000 4011 8649 0a00 0002  E..I.O@.@..I....
	0x0010:  0a00 000a 88e8 0035 0035 cbf1 69ea 0100  .......5.5..i...
	0x0020:  0001 0000 0000 0000 0331 3737 0331 3439  .........177.149
	0x0030:  0331 3836 0231 3007 696e 2d61 6464 7204  .186.10.in-addr.
	0x0040:  6172 7061 0000 0c00 01                   arpa.....
02:17:41.795500 IP 10.0.0.2.34984 > 10.0.0.10.domain: 22518+ PTR? 2.0.0.0.0.0.e.f.f.f.0.0.0.0.2.0.0.0.0.0.0.0.0.0.0.0.0.0.0.8.e.f.ip6.arpa. (90)
	0x0000:  4500 0076 a325 4000 4011 8346 0a00 0002  E..v.%@.@..F....
	0x0010:  0a00 000a 88a8 0035 0062 967d 57f6 0100  .......5.b.}W...
	0x0020:  0001 0000 0000 0000 0132 0130 0130 0130  .........2.0.0.0
	0x0030:  0130 0130 0165 0166 0166 0166 0130 0130  .0.0.e.f.f.f.0.0
	0x0040:  0130 0130 0132 0130 0130 0130 0130 0130  .0.0.2.0.0.0.0.0
	0x0050:  0130 0130 0130 0130 0130 0130 0130 0130  .0.0.0.0.0.0.0.0
	0x0060:  0130 0138 0165 0166 0369 7036 0461 7270  .0.8.e.f.ip6.arp
	0x0070:  6100 000c 0001                           a.....
02:17:43.895378 IP 10.0.0.2 > 10.186.149.177: ICMP echo request, id 4831, seq 2, length 64
	0x0000:  4500 0054 0000 4000 4001 903c 0a00 0002  E..T..@.@..<....
	0x0010:  0aba 95b1 0800 a09a 12df 0002 b7b5 3e52  ..............>R
	0x0020:  0000 0000 82a9 0d00 0000 0000 1011 1213  ................
	0x0030:  1415 1617 1819 1a1b 1c1d 1e1f 2021 2223  .............!"#
	0x0040:  2425 2627 2829 2a2b 2c2d 2e2f 3031 3233  $%&'()*+,-./0123
	0x0050:  3435 3637                                4567
02:17:51.806221 IP 10.0.0.2.33736 > 10.0.0.10.domain: 25747+ PTR? 177.149.186.10.in-addr.arpa. (45)
	0x0000:  4500 0049 aceb 4000 4011 79ad 0a00 0002  E..I..@.@.y.....
	0x0010:  0a00 000a 83c8 0035 0035 d668 6493 0100  .......5.5.hd...
	0x0020:  0001 0000 0000 0000 0331 3737 0331 3439  .........177.149
	0x0030:  0331 3836 0231 3007 696e 2d61 6464 7204  .186.10.in-addr.
	0x0040:  6172 7061 0000 0c00 01                   arpa.....
02:17:53.903247 IP 10.0.0.2 > 10.186.149.177: ICMP echo request, id 4831, seq 3, length 64
	0x0000:  4500 0054 0000 4000 4001 903c 0a00 0002  E..T..@.@..<....
	0x0010:  0aba 95b1 0800 d77a 12df 0003 c1b5 3e52  .......z......>R
	0x0020:  0000 0000 41c8 0d00 0000 0000 1011 1213  ....A...........
	0x0030:  1415 1617 1819 1a1b 1c1d 1e1f 2021 2223  .............!"#
	0x0040:  2425 2627 2829 2a2b 2c2d 2e2f 3031 3233  $%&'()*+,-./0123
	0x0050:  3435 3637                                4567
02:17:53.903374 IP 10.186.149.177 > 10.0.0.2: ICMP echo reply, id 4831, seq 3, length 64
	0x0000:  4500 0054 fcaf 0000 4001 d38c 0aba 95b1  E..T....@.......
	0x0010:  0a00 0002 0000 df7a 12df 0003 c1b5 3e52  .......z......>R
	0x0020:  0000 0000 41c8 0d00 0000 0000 1011 1213  ....A...........
	0x0030:  1415 1617 1819 1a1b 1c1d 1e1f 2021 2223  .............!"#
	0x0040:  2425 2627 2829 2a2b 2c2d 2e2f 3031 3233  $%&'()*+,-./0123
	0x0050:  3435 3637                                4567
02:17:53.903563 IP 10.0.0.2.51223 > 10.0.0.10.domain: 32940+ PTR? 177.149.186.10.in-addr.arpa. (45)
	0x0000:  4500 0049 aef8 4000 4011 77a0 0a00 0002  E..I..@.@.w.....
	0x0010:  0a00 000a c817 0035 0035 7600 80ac 0100  .......5.5v.....
	0x0020:  0001 0000 0000 0000 0331 3737 0331 3439  .........177.149
	0x0030:  0331 3836 0231 3007 696e 2d61 6464 7204  .186.10.in-addr.
	0x0040:  6172 7061 0000 0c00 01                   arpa.....
02:17:56.811377 IP 10.0.0.2.57526 > 10.0.0.10.domain: 25747+ PTR? 177.149.186.10.in-addr.arpa. (45)
	0x0000:  4500 0049 b1cf 4000 4011 74c9 0a00 0002  E..I..@.@.t.....
	0x0010:  0a00 000a e0b6 0035 0035 797a 6493 0100  .......5.5yzd...
	0x0020:  0001 0000 0000 0000 0331 3737 0331 3439  .........177.149
	0x0030:  0331 3836 0231 3007 696e 2d61 6464 7204  .186.10.in-addr.
	0x0040:  6172 7061 0000 0c00 01                   arpa.....
02:17:58.908752 IP 10.0.0.2.36420 > 10.0.0.10.domain: 32940+ PTR? 177.149.186.10.in-addr.arpa. (45)
	0x0000:  4500 0049 b3db 4000 4011 72bd 0a00 0002  E..I..@.@.r.....
	0x0010:  0a00 000a 8e44 0035 0035 afd3 80ac 0100  .....D.5.5......
	0x0020:  0001 0000 0000 0000 0331 3737 0331 3439  .........177.149
	0x0030:  0331 3836 0231 3007 696e 2d61 6464 7204  .186.10.in-addr.
	0x0040:  6172 7061 0000 0c00 01                   arpa.....
02:17:58.911136 ARP, Request who-has 10.0.0.10 tell 10.0.0.2, length 28
	0x0000:  0001 0800 0604 0001 0000 0000 0002 0a00  ................
	0x0010:  0002 0000 0000 0000 0a00 000a            ............
02:17:58.936250 ARP, Reply 10.0.0.10 is-at 00:00:00:00:00:10 (oui Ethernet), length 28
	0x0000:  0001 0800 0604 0002 0000 0000 0010 0a00  ................
	0x0010:  000a 0000 0000 0002 0a00 0002            ............
02:18:03.913976 IP 10.0.0.2 > 10.186.149.177: ICMP echo request, id 4831, seq 4, length 64
	0x0000:  4500 0054 0000 4000 4001 903c 0a00 0002  E..T..@.@..<....
	0x0010:  0aba 95b1 0800 f24f 12df 0004 cbb5 3e52  .......O......>R
	0x0020:  0000 0000 1cf2 0d00 0000 0000 1011 1213  ................
	0x0030:  1415 1617 1819 1a1b 1c1d 1e1f 2021 2223  .............!"#
	0x0040:  2425 2627 2829 2a2b 2c2d 2e2f 3031 3233  $%&'()*+,-./0123
	0x0050:  3435 3637                                4567
02:18:03.914235 IP 10.186.149.177 > 10.0.0.2: ICMP echo reply, id 4831, seq 4, length 64
	0x0000:  4500 0054 fcb0 0000 4001 d38b 0aba 95b1  E..T....@.......
	0x0010:  0a00 0002 0000 fa4f 12df 0004 cbb5 3e52  .......O......>R
	0x0020:  0000 0000 1cf2 0d00 0000 0000 1011 1213  ................
	0x0030:  1415 1617 1819 1a1b 1c1d 1e1f 2021 2223  .............!"#
	0x0040:  2425 2627 2829 2a2b 2c2d 2e2f 3031 3233  $%&'()*+,-./0123
	0x0050:  3435 3637                                4567
02:18:03.914670 IP 10.0.0.2.48747 > 10.0.0.10.domain: 45466+ PTR? 177.149.186.10.in-addr.arpa. (45)
	0x0000:  4500 0049 b8be 4000 4011 6dda 0a00 0002  E..I..@.@.m.....
	0x0010:  0a00 000a be6b 0035 0035 4ebe b19a 0100  .....k.5.5N.....
	0x0020:  0001 0000 0000 0000 0331 3737 0331 3439  .........177.149
	0x0030:  0331 3836 0231 3007 696e 2d61 6464 7204  .186.10.in-addr.
	0x0040:  6172 7061 0000 0c00 01                   arpa.....
02:18:08.920703 IP 10.0.0.2.47751 > 10.0.0.10.domain: 45466+ PTR? 177.149.186.10.in-addr.arpa. (45)
	0x0000:  4500 0049 bda2 4000 4011 68f6 0a00 0002  E..I..@.@.h.....
	0x0010:  0a00 000a ba87 0035 0035 52a2 b19a 0100  .......5.5R.....
	0x0020:  0001 0000 0000 0000 0331 3737 0331 3439  .........177.149
	0x0030:  0331 3836 0231 3007 696e 2d61 6464 7204  .186.10.in-addr.
	0x0040:  6172 7061 0000 0c00 01                   arpa.....
02:18:13.926157 IP 10.0.0.2 > 10.186.149.177: ICMP echo request, id 4831, seq 5, length 64
	0x0000:  4500 0054 0000 4000 4001 903c 0a00 0002  E..T..@.@..<....
	0x0010:  0aba 95b1 0800 471f 12df 0005 d5b5 3e52  ......G.......>R
	0x0020:  0000 0000 bd21 0e00 0000 0000 1011 1213  .....!..........
	0x0030:  1415 1617 1819 1a1b 1c1d 1e1f 2021 2223  .............!"#
	0x0040:  2425 2627 2829 2a2b 2c2d 2e2f 3031 3233  $%&'()*+,-./0123
	0x0050:  3435 3637                                4567
02:18:13.926801 IP 10.186.149.177 > 10.0.0.2: ICMP echo reply, id 4831, seq 5, length 64
	0x0000:  4500 0054 fcb1 0000 4001 d38a 0aba 95b1  E..T....@.......
	0x0010:  0a00 0002 0000 4f1f 12df 0005 d5b5 3e52  ......O.......>R
	0x0020:  0000 0000 bd21 0e00 0000 0000 1011 1213  .....!..........
	0x0030:  1415 1617 1819 1a1b 1c1d 1e1f 2021 2223  .............!"#
	0x0040:  2425 2627 2829 2a2b 2c2d 2e2f 3031 3233  $%&'()*+,-./0123
	0x0050:  3435 3637                                4567
02:18:13.927063 IP 10.0.0.2.33012 > 10.0.0.10.domain: 7657+ PTR? 177.149.186.10.in-addr.arpa. (45)
	0x0000:  4500 0049 c285 4000 4011 6413 0a00 0002  E..I..@.@.d.....
	0x0010:  0a00 000a 80f4 0035 0035 1fe7 1de9 0100  .......5.5......
	0x0020:  0001 0000 0000 0000 0331 3737 0331 3439  .........177.149
	0x0030:  0331 3836 0231 3007 696e 2d61 6464 7204  .186.10.in-addr.
	0x0040:  6172 7061 0000 0c00 01                   arpa.....
02:18:18.930473 IP 10.0.0.2.36897 > 10.0.0.10.domain: 7657+ PTR? 177.149.186.10.in-addr.arpa. (45)
	0x0000:  4500 0049 c768 4000 4011 5f30 0a00 0002  E..I.h@.@._0....
	0x0010:  0a00 000a 9021 0035 0035 10ba 1de9 0100  .....!.5.5......
	0x0020:  0001 0000 0000 0000 0331 3737 0331 3439  .........177.149
	0x0030:  0331 3836 0231 3007 696e 2d61 6464 7204  .186.10.in-addr.
	0x0040:  6172 7061 0000 0c00 01                   arpa.....
tcpdump: pcap_loop: The interface went down
52 packets captured
56 packets received by filter
4 packets dropped by kernel
