tcpdump: verbose output suppressed, use -v or -vv for full protocol decode
listening on h1-eth0, link-type EN10MB (Ethernet), capture size 65535 bytes
02:16:41.951156 IP6 :: > ff02::1:ff83:a3f7: ICMP6, neighbor solicitation, who has fe80::38f4:b2ff:fe83:a3f7, length 24
	0x0000:  6000 0000 0018 3aff 0000 0000 0000 0000  `.....:.........
	0x0010:  0000 0000 0000 0000 ff02 0000 0000 0000  ................
	0x0020:  0000 0001 ff83 a3f7 8700 493d 0000 0000  ..........I=....
	0x0030:  fe80 0000 0000 0000 38f4 b2ff fe83 a3f7  ........8.......
02:16:41.951628 ARP, Request who-has 10.0.0.10 tell 10.0.0.1, length 28
	0x0000:  0001 0800 0604 0001 0000 0000 0001 0a00  ................
	0x0010:  0001 0000 0000 0000 0a00 000a            ............
02:16:41.964880 ARP, Reply 10.0.0.10 is-at 00:00:00:00:00:10 (oui Ethernet), length 28
	0x0000:  0001 0800 0604 0002 0000 0000 0010 0a00  ................
	0x0010:  000a 0000 0000 0001 0a00 0001            ............
02:16:41.964885 IP 10.0.0.1.54168 > 10.0.0.10.domain: 950+ PTR? 7.f.3.a.3.8.f.f.1.0.0.0.0.0.0.0.0.0.0.0.0.0.0.0.0.0.0.0.2.0.f.f.ip6.arpa. (90)
	0x0000:  4500 0076 68b4 4000 4011 bdb8 0a00 0001  E..vh.@.@.......
	0x0010:  0a00 000a d398 0035 0062 9fc5 03b6 0100  .......5.b......
	0x0020:  0001 0000 0000 0000 0137 0166 0133 0161  .........7.f.3.a
	0x0030:  0133 0138 0166 0166 0131 0130 0130 0130  .3.8.f.f.1.0.0.0
	0x0040:  0130 0130 0130 0130 0130 0130 0130 0130  .0.0.0.0.0.0.0.0
	0x0050:  0130 0130 0130 0130 0130 0130 0130 0130  .0.0.0.0.0.0.0.0
	0x0060:  0132 0130 0166 0166 0369 7036 0461 7270  .2.0.f.f.ip6.arp
	0x0070:  6100 000c 0001                           a.....
02:16:42.575148 IP6 :: > ff02::1:ff00:1: ICMP6, neighbor solicitation, who has fe80::200:ff:fe00:1, length 24
	0x0000:  6000 0000 0018 3aff 0000 0000 0000 0000  `.....:.........
	0x0010:  0000 0000 0000 0000 ff02 0000 0000 0000  ................
	0x0020:  0000 0001 ff00 0001 8700 7b25 0000 0000  ..........{%....
	0x0030:  fe80 0000 0000 0000 0200 00ff fe00 0001  ................
02:16:42.951166 IP6 fe80::38f4:b2ff:fe83:a3f7 > ip6-allrouters: ICMP6, router solicitation, length 16
	0x0000:  6000 0000 0010 3aff fe80 0000 0000 0000  `.....:.........
	0x0010:  38f4 b2ff fe83 a3f7 ff02 0000 0000 0000  8...............
	0x0020:  0000 0000 0000 0002 8500 5c4f 0000 0000  ..........\O....
	0x0030:  0101 3af4 b283 a3f7                      ..:.....
02:16:43.575166 IP6 fe80::200:ff:fe00:1 > ip6-allrouters: ICMP6, router solicitation, length 16
	0x0000:  6000 0000 0010 3aff fe80 0000 0000 0000  `.....:.........
	0x0010:  0200 00ff fe00 0001 ff02 0000 0000 0000  ................
	0x0020:  0000 0000 0000 0002 8500 7b2c 0000 0000  ..........{,....
	0x0030:  0101 0000 0000 0001                      ........
02:16:43.663168 IP 10.0.0.1.35204 > 10.0.0.10.domain: 8521+ A? target. (24)
	0x0000:  4500 0034 6a5f 4000 4011 bc4f 0a00 0001  E..4j_@.@..O....
	0x0010:  0a00 000a 8984 0035 0020 fc51 2149 0100  .......5...Q!I..
	0x0020:  0001 0000 0000 0000 0674 6172 6765 7400  .........target.
	0x0030:  0001 0001                                ....
02:16:43.681928 IP 10.0.0.10.domain > 10.0.0.1.35204: 8521*- 1/0/0 A 10.34.49.41 (40)
	0x0000:  4500 0044 6a5f 4000 4011 bc3f 0a00 000a  E..Dj_@.@..?....
	0x0010:  0a00 0001 0035 8984 0030 7dd1 2149 8400  .....5...0}.!I..
	0x0020:  0001 0001 0000 0000 0674 6172 6765 7400  .........target.
	0x0030:  0001 0001 c00c 0001 0001 0000 0001 0004  ................
	0x0040:  0a22 3129                                ."1)
02:16:43.682209 ARP, Request who-has 10.34.49.41 tell 10.0.0.1, length 28
	0x0000:  0001 0800 0604 0001 0000 0000 0001 0a00  ................
	0x0010:  0001 0000 0000 0000 0a22 3129            ........."1)
02:16:43.720106 ARP, Reply 10.34.49.41 is-at 00:00:00:00:00:03 (oui Ethernet), length 28
	0x0000:  0001 0800 0604 0002 0000 0000 0003 0a22  ..............."
	0x0010:  3129 0000 0000 0001 0a00 0001            1)..........
02:16:43.720139 IP 10.0.0.1 > 10.34.49.41: ICMP echo request, id 4818, seq 1, length 64
	0x0000:  4500 0054 0000 4000 4001 f55d 0a00 0001  E..T..@.@..]....
	0x0010:  0a22 3129 0800 91e9 12d2 0001 7bb5 3e52  ."1)........{.>R
	0x0020:  0000 0000 d068 0a00 0000 0000 1011 1213  .....h..........
	0x0030:  1415 1617 1819 1a1b 1c1d 1e1f 2021 2223  .............!"#
	0x0040:  2425 2627 2829 2a2b 2c2d 2e2f 3031 3233  $%&'()*+,-./0123
	0x0050:  3435 3637                                4567
02:16:43.750706 IP 10.34.49.41 > 10.0.0.1: ICMP echo reply, id 4818, seq 1, length 64
	0x0000:  4500 0054 ecfe 0000 4001 485f 0a22 3129  E..T....@.H_."1)
	0x0010:  0a00 0001 0000 99e9 12d2 0001 7bb5 3e52  ............{.>R
	0x0020:  0000 0000 d068 0a00 0000 0000 1011 1213  .....h..........
	0x0030:  1415 1617 1819 1a1b 1c1d 1e1f 2021 2223  .............!"#
	0x0040:  2425 2627 2829 2a2b 2c2d 2e2f 3031 3233  $%&'()*+,-./0123
	0x0050:  3435 3637                                4567
02:16:43.750846 IP 10.0.0.1.55983 > 10.0.0.10.domain: 47693+ PTR? 41.49.34.10.in-addr.arpa. (42)
	0x0000:  4500 0046 6a75 4000 4011 bc27 0a00 0001  E..Fju@.@..'....
	0x0010:  0a00 000a daaf 0035 0032 732b ba4d 0100  .......5.2s+.M..
	0x0020:  0001 0000 0000 0000 0234 3102 3439 0233  .........41.49.3
	0x0030:  3402 3130 0769 6e2d 6164 6472 0461 7270  4.10.in-addr.arp
	0x0040:  6100 000c 0001                           a.....
02:16:46.956796 IP 10.0.0.1.41694 > 10.0.0.10.domain: 950+ PTR? 7.f.3.a.3.8.f.f.1.0.0.0.0.0.0.0.0.0.0.0.0.0.0.0.0.0.0.0.2.0.f.f.ip6.arpa. (90)
	0x0000:  4500 0076 6d97 4000 4011 b8d5 0a00 0001  E..vm.@.@.......
	0x0010:  0a00 000a a2de 0035 0062 d07f 03b6 0100  .......5.b......
	0x0020:  0001 0000 0000 0000 0137 0166 0133 0161  .........7.f.3.a
	0x0030:  0133 0138 0166 0166 0131 0130 0130 0130  .3.8.f.f.1.0.0.0
	0x0040:  0130 0130 0130 0130 0130 0130 0130 0130  .0.0.0.0.0.0.0.0
	0x0050:  0130 0130 0130 0130 0130 0130 0130 0130  .0.0.0.0.0.0.0.0
	0x0060:  0132 0130 0166 0166 0369 7036 0461 7270  .2.0.f.f.ip6.arp
	0x0070:  6100 000c 0001                           a.....
02:16:46.959540 IP6 fe80::38f4:b2ff:fe83:a3f7 > ip6-allrouters: ICMP6, router solicitation, length 16
	0x0000:  6000 0000 0010 3aff fe80 0000 0000 0000  `.....:.........
	0x0010:  38f4 b2ff fe83 a3f7 ff02 0000 0000 0000  8...............
	0x0020:  0000 0000 0000 0002 8500 5c4f 0000 0000  ..........\O....
	0x0030:  0101 3af4 b283 a3f7                      ..:.....
02:16:47.583276 IP6 fe80::200:ff:fe00:1 > ip6-allrouters: ICMP6, router solicitation, length 16
	0x0000:  6000 0000 0010 3aff fe80 0000 0000 0000  `.....:.........
	0x0010:  0200 00ff fe00 0001 ff02 0000 0000 0000  ................
	0x0020:  0000 0000 0000 0002 8500 7b2c 0000 0000  ..........{,....
	0x0030:  0101 0000 0000 0001                      ........
02:16:48.127161 IP6 fe80::200:ff:fe00:1 > ff02::16: HBH ICMP6, multicast listener report v2, 1 group record(s), length 28
	0x0000:  6000 0000 0024 0001 fe80 0000 0000 0000  `....$..........
	0x0010:  0200 00ff fe00 0001 ff02 0000 0000 0000  ................
	0x0020:  0000 0000 0000 0016 3a00 0502 0000 0100  ........:.......
	0x0030:  8f00 7007 0000 0001 0400 0000 ff02 0000  ..p.............
	0x0040:  0000 0000 0000 0001 ff00 0001            ............
02:16:48.754109 IP 10.0.0.1.58373 > 10.0.0.10.domain: 47693+ PTR? 41.49.34.10.in-addr.arpa. (42)
	0x0000:  4500 0046 6f58 4000 4011 b744 0a00 0001  E..FoX@.@..D....
	0x0010:  0a00 000a e405 0035 0032 69d5 ba4d 0100  .......5.2i..M..
	0x0020:  0001 0000 0000 0000 0234 3102 3439 0233  .........41.49.3
	0x0030:  3402 3130 0769 6e2d 6164 6472 0461 7270  4.10.in-addr.arp
	0x0040:  6100 000c 0001                           a.....
02:16:50.968340 IP6 fe80::38f4:b2ff:fe83:a3f7 > ip6-allrouters: ICMP6, router solicitation, length 16
	0x0000:  6000 0000 0010 3aff fe80 0000 0000 0000  `.....:.........
	0x0010:  38f4 b2ff fe83 a3f7 ff02 0000 0000 0000  8...............
	0x0020:  0000 0000 0000 0002 8500 5c4f 0000 0000  ..........\O....
	0x0030:  0101 3af4 b283 a3f7                      ..:.....
02:16:51.343154 IP6 fe80::38f4:b2ff:fe83:a3f7 > ff02::16: HBH ICMP6, multicast listener report v2, 1 group record(s), length 28
	0x0000:  6000 0000 0024 0001 fe80 0000 0000 0000  `....$..........
	0x0010:  38f4 b2ff fe83 a3f7 ff02 0000 0000 0000  8...............
	0x0020:  0000 0000 0000 0016 3a00 0502 0000 0100  ........:.......
	0x0030:  8f00 3e1f 0000 0001 0400 0000 ff02 0000  ..>.............
	0x0040:  0000 0000 0000 0001 ff83 a3f7            ............
02:16:51.591147 IP6 fe80::200:ff:fe00:1 > ip6-allrouters: ICMP6, router solicitation, length 16
	0x0000:  6000 0000 0010 3aff fe80 0000 0000 0000  `.....:.........
	0x0010:  0200 00ff fe00 0001 ff02 0000 0000 0000  ................
	0x0020:  0000 0000 0000 0002 8500 7b2c 0000 0000  ..........{,....
	0x0030:  0101 0000 0000 0001                      ........
02:16:51.962065 IP 10.0.0.1.47808 > 10.0.0.10.domain: 56524+ PTR? 7.f.3.a.3.8.e.f.f.f.2.b.4.f.8.3.0.0.0.0.0.0.0.0.0.0.0.0.0.8.e.f.ip6.arpa. (90)
	0x0000:  4500 0076 727a 4000 4011 b3f2 0a00 0001  E..vrz@.@.......
	0x0010:  0a00 000a bac0 0035 0062 de9e dccc 0100  .......5.b......
	0x0020:  0001 0000 0000 0000 0137 0166 0133 0161  .........7.f.3.a
	0x0030:  0133 0138 0165 0166 0166 0166 0132 0162  .3.8.e.f.f.f.2.b
	0x0040:  0134 0166 0138 0133 0130 0130 0130 0130  .4.f.8.3.0.0.0.0
	0x0050:  0130 0130 0130 0130 0130 0130 0130 0130  .0.0.0.0.0.0.0.0
	0x0060:  0130 0138 0165 0166 0369 7036 0461 7270  .0.8.e.f.ip6.arp
	0x0070:  6100 000c 0001                           a.....
02:16:53.759266 IP 10.0.0.1 > 10.34.49.41: ICMP echo request, id 4818, seq 2, length 64
	0x0000:  4500 0054 0000 4000 4001 f55d 0a00 0001  E..T..@.@..]....
	0x0010:  0a22 3129 0800 7fbb 12d2 0002 85b5 3e52  ."1)..........>R
	0x0020:  0000 0000 d795 0b00 0000 0000 1011 1213  ................
	0x0030:  1415 1617 1819 1a1b 1c1d 1e1f 2021 2223  .............!"#
	0x0040:  2425 2627 2829 2a2b 2c2d 2e2f 3031 3233  $%&'()*+,-./0123
	0x0050:  3435 3637                                4567
02:16:53.759369 IP 10.34.49.41 > 10.0.0.1: ICMP echo reply, id 4818, seq 2, length 64
	0x0000:  4500 0054 ecff 0000 4001 485e 0a22 3129  E..T....@.H^."1)
	0x0010:  0a00 0001 0000 87bb 12d2 0002 85b5 3e52  ..............>R
	0x0020:  0000 0000 d795 0b00 0000 0000 1011 1213  ................
	0x0030:  1415 1617 1819 1a1b 1c1d 1e1f 2021 2223  .............!"#
	0x0040:  2425 2627 2829 2a2b 2c2d 2e2f 3031 3233  $%&'()*+,-./0123
	0x0050:  3435 3637                                4567
02:16:53.759534 IP 10.0.0.1.43094 > 10.0.0.10.domain: 19055+ PTR? 41.49.34.10.in-addr.arpa. (42)
	0x0000:  4500 0046 743c 4000 4011 b260 0a00 0001  E..Ft<@.@..`....
	0x0010:  0a00 000a a856 0035 0032 1563 4a6f 0100  .....V.5.2.cJo..
	0x0020:  0001 0000 0000 0000 0234 3102 3439 0233  .........41.49.3
	0x0030:  3402 3130 0769 6e2d 6164 6472 0461 7270  4.10.in-addr.arp
	0x0040:  6100 000c 0001                           a.....
02:16:56.967847 IP 10.0.0.1.40385 > 10.0.0.10.domain: 56524+ PTR? 7.f.3.a.3.8.e.f.f.f.2.b.4.f.8.3.0.0.0.0.0.0.0.0.0.0.0.0.0.8.e.f.ip6.arpa. (90)
	0x0000:  4500 0076 775e 4000 4011 af0e 0a00 0001  E..vw^@.@.......
	0x0010:  0a00 000a 9dc1 0035 0062 fb9d dccc 0100  .......5.b......
	0x0020:  0001 0000 0000 0000 0137 0166 0133 0161  .........7.f.3.a
	0x0030:  0133 0138 0165 0166 0166 0166 0132 0162  .3.8.e.f.f.f.2.b
	0x0040:  0134 0166 0138 0133 0130 0130 0130 0130  .4.f.8.3.0.0.0.0
	0x0050:  0130 0130 0130 0130 0130 0130 0130 0130  .0.0.0.0.0.0.0.0
	0x0060:  0130 0138 0165 0166 0369 7036 0461 7270  .0.8.e.f.ip6.arp
	0x0070:  6100 000c 0001                           a.....
02:16:58.764652 IP 10.0.0.1.39517 > 10.0.0.10.domain: 19055+ PTR? 41.49.34.10.in-addr.arpa. (42)
	0x0000:  4500 0046 791f 4000 4011 ad7d 0a00 0001  E..Fy.@.@..}....
	0x0010:  0a00 000a 9a5d 0035 0032 235c 4a6f 0100  .....].5.2#\Jo..
	0x0020:  0001 0000 0000 0000 0234 3102 3439 0233  .........41.49.3
	0x0030:  3402 3130 0769 6e2d 6164 6472 0461 7270  4.10.in-addr.arp
	0x0040:  6100 000c 0001                           a.....
02:17:01.971301 IP 10.0.0.1.47671 > 10.0.0.10.domain: 33037+ PTR? 10.0.0.10.in-addr.arpa. (40)
	0x0000:  4500 0044 7c41 4000 4011 aa5d 0a00 0001  E..D|A@.@..]....
	0x0010:  0a00 000a ba37 0035 0030 d856 810d 0100  .....7.5.0.V....
	0x0020:  0001 0000 0000 0000 0231 3001 3001 3002  .........10.0.0.
	0x0030:  3130 0769 6e2d 6164 6472 0461 7270 6100  10.in-addr.arpa.
	0x0040:  000c 0001                                ....
02:17:03.769828 IP 10.0.0.1 > 10.34.49.41: ICMP echo request, id 4818, seq 3, length 64
	0x0000:  4500 0054 0000 4000 4001 f55d 0a00 0001  E..T..@.@..]....
	0x0010:  0a22 3129 0800 3891 12d2 0003 8fb5 3e52  ."1)..8.......>R
	0x0020:  0000 0000 14bf 0b00 0000 0000 1011 1213  ................
	0x0030:  1415 1617 1819 1a1b 1c1d 1e1f 2021 2223  .............!"#
	0x0040:  2425 2627 2829 2a2b 2c2d 2e2f 3031 3233  $%&'()*+,-./0123
	0x0050:  3435 3637                                4567
02:17:03.769964 IP 10.34.49.41 > 10.0.0.1: ICMP echo reply, id 4818, seq 3, length 64
	0x0000:  4500 0054 ed00 0000 4001 485d 0a22 3129  E..T....@.H]."1)
	0x0010:  0a00 0001 0000 4091 12d2 0003 8fb5 3e52  ......@.......>R
	0x0020:  0000 0000 14bf 0b00 0000 0000 1011 1213  ................
	0x0030:  1415 1617 1819 1a1b 1c1d 1e1f 2021 2223  .............!"#
	0x0040:  2425 2627 2829 2a2b 2c2d 2e2f 3031 3233  $%&'()*+,-./0123
	0x0050:  3435 3637                                4567
02:17:03.770165 IP 10.0.0.1.35282 > 10.0.0.10.domain: 37105+ PTR? 41.49.34.10.in-addr.arpa. (42)
	0x0000:  4500 0046 7e02 4000 4011 a89a 0a00 0001  E..F~.@.@.......
	0x0010:  0a00 000a 89d2 0035 0032 ed64 90f1 0100  .......5.2.d....
	0x0020:  0001 0000 0000 0000 0234 3102 3439 0233  .........41.49.3
	0x0030:  3402 3130 0769 6e2d 6164 6472 0461 7270  4.10.in-addr.arp
	0x0040:  6100 000c 0001                           a.....
02:17:21.988596 IP 10.0.0.1.59044 > 10.0.0.10.domain: 54300+ PTR? 1.0.0.0.0.0.f.f.1.0.0.0.0.0.0.0.0.0.0.0.0.0.0.0.0.0.0.0.2.0.f.f.ip6.arpa. (90)
	0x0000:  4500 0076 8fcd 4000 4011 969f 0a00 0001  E..v..@.@.......
	0x0010:  0a00 000a e6a4 0035 0062 bccd d41c 0100  .......5.b......
	0x0020:  0001 0000 0000 0000 0131 0130 0130 0130  .........1.0.0.0
	0x0030:  0130 0130 0166 0166 0131 0130 0130 0130  .0.0.f.f.1.0.0.0
	0x0040:  0130 0130 0130 0130 0130 0130 0130 0130  .0.0.0.0.0.0.0.0
	0x0050:  0130 0130 0130 0130 0130 0130 0130 0130  .0.0.0.0.0.0.0.0
	0x0060:  0132 0130 0166 0166 0369 7036 0461 7270  .2.0.f.f.ip6.arp
	0x0070:  6100 000c 0001                           a.....
02:17:23.789614 IP 10.0.0.1 > 10.34.49.41: ICMP echo request, id 4818, seq 5, length 64
	0x0000:  4500 0054 0000 4000 4001 f55d 0a00 0001  E..T..@.@..]....
	0x0010:  0a22 3129 0800 f341 12d2 0005 a3b5 3e52  ."1)...A......>R
	0x0020:  0000 0000 450c 0c00 0000 0000 1011 1213  ....E...........
	0x0030:  1415 1617 1819 1a1b 1c1d 1e1f 2021 2223  .............!"#
	0x0040:  2425 2627 2829 2a2b 2c2d 2e2f 3031 3233  $%&'()*+,-./0123
	0x0050:  3435 3637                                4567
02:17:23.789927 IP 10.34.49.41 > 10.0.0.1: ICMP echo reply, id 4818, seq 5, length 64
	0x0000:  4500 0054 ed02 0000 4001 485b 0a22 3129  E..T....@.H[."1)
	0x0010:  0a00 0001 0000 fb41 12d2 0005 a3b5 3e52  .......A......>R
	0x0020:  0000 0000 450c 0c00 0000 0000 1011 1213  ....E...........
	0x0030:  1415 1617 1819 1a1b 1c1d 1e1f 2021 2223  .............!"#
	0x0040:  2425 2627 2829 2a2b 2c2d 2e2f 3031 3233  $%&'()*+,-./0123
	0x0050:  3435 3637                                4567
02:17:42.006595 IP 10.0.0.1.50914 > 10.0.0.10.domain: 39918+ PTR? 41.49.34.10.in-addr.arpa. (42)
	0x0000:  4500 0046 a359 4000 4011 8343 0a00 0001  E..F.Y@.@..C....
	0x0010:  0a00 000a c6e2 0035 0032 a557 9bee 0100  .......5.2.W....
	0x0020:  0001 0000 0000 0000 0234 3102 3439 0233  .........41.49.3
	0x0030:  3402 3130 0769 6e2d 6164 6472 0461 7270  4.10.in-addr.arp
	0x0040:  6100 000c 0001                           a.....
02:17:42.015136 ARP, Request who-has 10.0.0.10 tell 10.0.0.1, length 28
	0x0000:  0001 0800 0604 0001 0000 0000 0001 0a00  ................
	0x0010:  0001 0000 0000 0000 0a00 000a            ............
02:17:42.015821 ARP, Reply 10.0.0.10 is-at 00:00:00:00:00:10 (oui Ethernet), length 28
	0x0000:  0001 0800 0604 0002 0000 0000 0010 0a00  ................
	0x0010:  000a 0000 0000 0001 0a00 0001            ............
02:17:47.011228 IP 10.0.0.1.43357 > 10.0.0.10.domain: 39918+ PTR? 41.49.34.10.in-addr.arpa. (42)
	0x0000:  4500 0046 a83d 4000 4011 7e5f 0a00 0001  E..F.=@.@.~_....
	0x0010:  0a00 000a a95d 0035 0032 c2dc 9bee 0100  .....].5.2......
	0x0020:  0001 0000 0000 0000 0234 3102 3439 0233  .........41.49.3
	0x0030:  3402 3130 0769 6e2d 6164 6472 0461 7270  4.10.in-addr.arp
	0x0040:  6100 000c 0001                           a.....
02:17:52.016661 IP 10.0.0.1.49127 > 10.0.0.10.domain: 51158+ PTR? 6.1.0.0.0.0.0.0.0.0.0.0.0.0.0.0.0.0.0.0.0.0.0.0.0.0.0.0.2.0.f.f.ip6.arpa. (90)
	0x0000:  4500 0076 ad20 4000 4011 794c 0a00 0001  E..v..@.@.yL....
	0x0010:  0a00 000a bfe7 0035 0062 f037 c7d6 0100  .......5.b.7....
	0x0020:  0001 0000 0000 0000 0136 0131 0130 0130  .........6.1.0.0
	0x0030:  0130 0130 0130 0130 0130 0130 0130 0130  .0.0.0.0.0.0.0.0
	0x0040:  0130 0130 0130 0130 0130 0130 0130 0130  .0.0.0.0.0.0.0.0
	0x0050:  0130 0130 0130 0130 0130 0130 0130 0130  .0.0.0.0.0.0.0.0
	0x0060:  0132 0130 0166 0166 0369 7036 0461 7270  .2.0.f.f.ip6.arp
	0x0070:  6100 000c 0001                           a.....
02:17:57.021845 IP 10.0.0.1.58530 > 10.0.0.10.domain: 51158+ PTR? 6.1.0.0.0.0.0.0.0.0.0.0.0.0.0.0.0.0.0.0.0.0.0.0.0.0.0.0.2.0.f.f.ip6.arpa. (90)
	0x0000:  4500 0076 b203 4000 4011 7469 0a00 0001  E..v..@.@.ti....
	0x0010:  0a00 000a e4a2 0035 0062 cb7c c7d6 0100  .......5.b.|....
	0x0020:  0001 0000 0000 0000 0136 0131 0130 0130  .........6.1.0.0
	0x0030:  0130 0130 0130 0130 0130 0130 0130 0130  .0.0.0.0.0.0.0.0
	0x0040:  0130 0130 0130 0130 0130 0130 0130 0130  .0.0.0.0.0.0.0.0
	0x0050:  0130 0130 0130 0130 0130 0130 0130 0130  .0.0.0.0.0.0.0.0
	0x0060:  0132 0130 0166 0166 0369 7036 0461 7270  .2.0.f.f.ip6.arp
	0x0070:  6100 000c 0001                           a.....
tcpdump: pcap_loop: The interface went down
41 packets captured
56 packets received by filter
15 packets dropped by kernel
