tcpdump: verbose output suppressed, use -v or -vv for full protocol decode
listening on h3-eth0, link-type EN10MB (Ethernet), capture size 65535 bytes
02:16:41.747140 IP6 :: > ff02::1:ff00:3: ICMP6, neighbor solicitation, who has fe80::200:ff:fe00:3, length 24
	0x0000:  6000 0000 0018 3aff 0000 0000 0000 0000  `.....:.........
	0x0010:  0000 0000 0000 0000 ff02 0000 0000 0000  ................
	0x0020:  0000 0001 ff00 0003 8700 7b21 0000 0000  ..........{!....
	0x0030:  fe80 0000 0000 0000 0200 00ff fe00 0003  ................
02:16:41.747536 ARP, Request who-has 10.0.0.10 tell 10.0.0.3, length 28
	0x0000:  0001 0800 0604 0001 0000 0000 0003 0a00  ................
	0x0010:  0003 0000 0000 0000 0a00 000a            ............
02:16:41.747992 ARP, Reply 10.0.0.10 is-at 00:00:00:00:00:10 (oui Ethernet), length 28
	0x0000:  0001 0800 0604 0002 0000 0000 0010 0a00  ................
	0x0010:  000a 0000 0000 0003 0a00 0003            ............
02:16:41.747996 IP 10.0.0.3.37366 > 10.0.0.10.domain: 64864+ PTR? 3.0.0.0.0.0.f.f.1.0.0.0.0.0.0.0.0.0.0.0.0.0.0.0.0.0.0.0.2.0.f.f.ip6.arpa. (90)
	0x0000:  4500 0076 6881 4000 4011 bde9 0a00 0003  E..vh.@.@.......
	0x0010:  0a00 000a 91f6 0035 0062 e833 fd60 0100  .......5.b.3.`..
	0x0020:  0001 0000 0000 0000 0133 0130 0130 0130  .........3.0.0.0
	0x0030:  0130 0130 0166 0166 0131 0130 0130 0130  .0.0.f.f.1.0.0.0
	0x0040:  0130 0130 0130 0130 0130 0130 0130 0130  .0.0.0.0.0.0.0.0
	0x0050:  0130 0130 0130 0130 0130 0130 0130 0130  .0.0.0.0.0.0.0.0
	0x0060:  0132 0130 0166 0166 0369 7036 0461 7270  .2.0.f.f.ip6.arp
	0x0070:  6100 000c 0001                           a.....
02:16:42.187195 IP6 :: > ff02::1:ff93:663f: ICMP6, neighbor solicitation, who has fe80::28c8:f4ff:fe93:663f, length 24
	0x0000:  6000 0000 0018 3aff 0000 0000 0000 0000  `.....:.........
	0x0010:  0000 0000 0000 0000 ff02 0000 0000 0000  ................
	0x0020:  0000 0001 ff93 663f 8700 92b9 0000 0000  ......f?........
	0x0030:  fe80 0000 0000 0000 28c8 f4ff fe93 663f  ........(.....f?
02:16:42.747664 IP6 fe80::200:ff:fe00:3 > ip6-allrouters: ICMP6, router solicitation, length 16
	0x0000:  6000 0000 0010 3aff fe80 0000 0000 0000  `.....:.........
	0x0010:  0200 00ff fe00 0003 ff02 0000 0000 0000  ................
	0x0020:  0000 0000 0000 0002 8500 7b28 0000 0000  ..........{(....
	0x0030:  0101 0000 0000 0003                      ........
02:16:43.187169 IP6 fe80::28c8:f4ff:fe93:663f > ip6-allrouters: ICMP6, router solicitation, length 16
	0x0000:  6000 0000 0010 3aff fe80 0000 0000 0000  `.....:.........
	0x0010:  28c8 f4ff fe93 663f ff02 0000 0000 0000  (.....f?........
	0x0020:  0000 0000 0000 0002 8500 73f7 0000 0000  ..........s.....
	0x0030:  0101 2ac8 f493 663f                      ..*...f?
02:16:43.720257 IP 10.0.0.1 > 10.0.0.3: ICMP echo request, id 4818, seq 1, length 64
	0x0000:  4500 0054 0000 4000 4001 26a6 0a00 0001  E..T..@.@.&.....
	0x0010:  0a00 0003 0800 91e9 12d2 0001 7bb5 3e52  ............{.>R
	0x0020:  0000 0000 d068 0a00 0000 0000 1011 1213  .....h..........
	0x0030:  1415 1617 1819 1a1b 1c1d 1e1f 2021 2223  .............!"#
	0x0040:  2425 2627 2829 2a2b 2c2d 2e2f 3031 3233  $%&'()*+,-./0123
	0x0050:  3435 3637                                4567
02:16:43.720301 ARP, Request who-has 10.0.0.1 tell 10.0.0.3, length 28
	0x0000:  0001 0800 0604 0001 0000 0000 0003 0a00  ................
	0x0010:  0003 0000 0000 0000 0a00 0001            ............
02:16:43.750631 ARP, Reply 10.0.0.1 is-at 00:00:00:00:00:01 (oui Ethernet), length 28
	0x0000:  0001 0800 0604 0002 0000 0000 0001 0a00  ................
	0x0010:  0001 0000 0000 0003 0a00 0003            ............
02:16:43.750637 IP 10.0.0.3 > 10.0.0.1: ICMP echo reply, id 4818, seq 1, length 64
	0x0000:  4500 0054 ecfe 0000 4001 79a7 0a00 0003  E..T....@.y.....
	0x0010:  0a00 0001 0000 99e9 12d2 0001 7bb5 3e52  ............{.>R
	0x0020:  0000 0000 d068 0a00 0000 0000 1011 1213  .....h..........
	0x0030:  1415 1617 1819 1a1b 1c1d 1e1f 2021 2223  .............!"#
	0x0040:  2425 2627 2829 2a2b 2c2d 2e2f 3031 3233  $%&'()*+,-./0123
	0x0050:  3435 3637                                4567
02:16:45.231165 IP6 fe80::28c8:f4ff:fe93:663f > ff02::16: HBH ICMP6, multicast listener report v2, 1 group record(s), length 28
	0x0000:  6000 0000 0024 0001 fe80 0000 0000 0000  `....$..........
	0x0010:  28c8 f4ff fe93 663f ff02 0000 0000 0000  (.....f?........
	0x0020:  0000 0000 0000 0016 3a00 0502 0000 0100  ........:.......
	0x0030:  8f00 879b 0000 0001 0400 0000 ff02 0000  ................
	0x0040:  0000 0000 0000 0001 ff93 663f            ..........f?
02:16:46.751148 IP6 fe80::200:ff:fe00:3 > ip6-allrouters: ICMP6, router solicitation, length 16
	0x0000:  6000 0000 0010 3aff fe80 0000 0000 0000  `.....:.........
	0x0010:  0200 00ff fe00 0003 ff02 0000 0000 0000  ................
	0x0020:  0000 0000 0000 0002 8500 7b28 0000 0000  ..........{(....
	0x0030:  0101 0000 0000 0003                      ........
02:16:46.751235 IP 10.0.0.3.48833 > 10.0.0.10.domain: 64864+ PTR? 3.0.0.0.0.0.f.f.1.0.0.0.0.0.0.0.0.0.0.0.0.0.0.0.0.0.0.0.2.0.f.f.ip6.arpa. (90)
	0x0000:  4500 0076 6d64 4000 4011 b906 0a00 0003  E..vmd@.@.......
	0x0010:  0a00 000a bec1 0035 0062 bb68 fd60 0100  .......5.b.h.`..
	0x0020:  0001 0000 0000 0000 0133 0130 0130 0130  .........3.0.0.0
	0x0030:  0130 0130 0166 0166 0131 0130 0130 0130  .0.0.f.f.1.0.0.0
	0x0040:  0130 0130 0130 0130 0130 0130 0130 0130  .0.0.0.0.0.0.0.0
	0x0050:  0130 0130 0130 0130 0130 0130 0130 0130  .0.0.0.0.0.0.0.0
	0x0060:  0132 0130 0166 0166 0369 7036 0461 7270  .2.0.f.f.ip6.arp
	0x0070:  6100 000c 0001                           a.....
02:16:47.199593 IP6 fe80::28c8:f4ff:fe93:663f > ip6-allrouters: ICMP6, router solicitation, length 16
	0x0000:  6000 0000 0010 3aff fe80 0000 0000 0000  `.....:.........
	0x0010:  28c8 f4ff fe93 663f ff02 0000 0000 0000  (.....f?........
	0x0020:  0000 0000 0000 0002 8500 73f7 0000 0000  ..........s.....
	0x0030:  0101 2ac8 f493 663f                      ..*...f?
02:16:50.759158 IP6 fe80::200:ff:fe00:3 > ip6-allrouters: ICMP6, router solicitation, length 16
	0x0000:  6000 0000 0010 3aff fe80 0000 0000 0000  `.....:.........
	0x0010:  0200 00ff fe00 0003 ff02 0000 0000 0000  ................
	0x0020:  0000 0000 0000 0002 8500 7b28 0000 0000  ..........{(....
	0x0030:  0101 0000 0000 0003                      ........
02:16:50.863149 IP6 fe80::200:ff:fe00:3 > ff02::16: HBH ICMP6, multicast listener report v2, 1 group record(s), length 28
	0x0000:  6000 0000 0024 0001 fe80 0000 0000 0000  `....$..........
	0x0010:  0200 00ff fe00 0003 ff02 0000 0000 0000  ................
	0x0020:  0000 0000 0000 0016 3a00 0502 0000 0100  ........:.......
	0x0030:  8f00 7003 0000 0001 0400 0000 ff02 0000  ..p.............
	0x0040:  0000 0000 0000 0001 ff00 0003            ............
02:16:51.207150 IP6 fe80::28c8:f4ff:fe93:663f > ip6-allrouters: ICMP6, router solicitation, length 16
	0x0000:  6000 0000 0010 3aff fe80 0000 0000 0000  `.....:.........
	0x0010:  28c8 f4ff fe93 663f ff02 0000 0000 0000  (.....f?........
	0x0020:  0000 0000 0000 0002 8500 73f7 0000 0000  ..........s.....
	0x0030:  0101 2ac8 f493 663f                      ..*...f?
02:16:51.755195 IP 10.0.0.3.52879 > 10.0.0.10.domain: 31263+ PTR? 3.0.0.0.0.0.e.f.f.f.0.0.0.0.2.0.0.0.0.0.0.0.0.0.0.0.0.0.0.8.e.f.ip6.arpa. (90)
	0x0000:  4500 0076 7247 4000 4011 b423 0a00 0003  E..vrG@.@..#....
	0x0010:  0a00 000a ce8f 0035 0062 2e6b 7a1f 0100  .......5.b.kz...
	0x0020:  0001 0000 0000 0000 0133 0130 0130 0130  .........3.0.0.0
	0x0030:  0130 0130 0165 0166 0166 0166 0130 0130  .0.0.e.f.f.f.0.0
	0x0040:  0130 0130 0132 0130 0130 0130 0130 0130  .0.0.2.0.0.0.0.0
	0x0050:  0130 0130 0130 0130 0130 0130 0130 0130  .0.0.0.0.0.0.0.0
	0x0060:  0130 0138 0165 0166 0369 7036 0461 7270  .0.8.e.f.ip6.arp
	0x0070:  6100 000c 0001                           a.....
02:16:53.759335 IP 10.0.0.1 > 10.0.0.3: ICMP echo request, id 4818, seq 2, length 64
	0x0000:  4500 0054 0000 4000 4001 26a6 0a00 0001  E..T..@.@.&.....
	0x0010:  0a00 0003 0800 7fbb 12d2 0002 85b5 3e52  ..............>R
	0x0020:  0000 0000 d795 0b00 0000 0000 1011 1213  ................
	0x0030:  1415 1617 1819 1a1b 1c1d 1e1f 2021 2223  .............!"#
	0x0040:  2425 2627 2829 2a2b 2c2d 2e2f 3031 3233  $%&'()*+,-./0123
	0x0050:  3435 3637                                4567
02:16:53.759345 IP 10.0.0.3 > 10.0.0.1: ICMP echo reply, id 4818, seq 2, length 64
	0x0000:  4500 0054 ecff 0000 4001 79a6 0a00 0003  E..T....@.y.....
	0x0010:  0a00 0001 0000 87bb 12d2 0002 85b5 3e52  ..............>R
	0x0020:  0000 0000 d795 0b00 0000 0000 1011 1213  ................
	0x0030:  1415 1617 1819 1a1b 1c1d 1e1f 2021 2223  .............!"#
	0x0040:  2425 2627 2829 2a2b 2c2d 2e2f 3031 3233  $%&'()*+,-./0123
	0x0050:  3435 3637                                4567
02:16:56.755354 IP 10.0.0.3.40349 > 10.0.0.10.domain: 31263+ PTR? 3.0.0.0.0.0.e.f.f.f.0.0.0.0.2.0.0.0.0.0.0.0.0.0.0.0.0.0.0.8.e.f.ip6.arpa. (90)
	0x0000:  4500 0076 7729 4000 4011 af41 0a00 0003  E..vw)@.@..A....
	0x0010:  0a00 000a 9d9d 0035 0062 5f5d 7a1f 0100  .......5.b_]z...
	0x0020:  0001 0000 0000 0000 0133 0130 0130 0130  .........3.0.0.0
	0x0030:  0130 0130 0165 0166 0166 0166 0130 0130  .0.0.e.f.f.f.0.0
	0x0040:  0130 0130 0132 0130 0130 0130 0130 0130  .0.0.2.0.0.0.0.0
	0x0050:  0130 0130 0130 0130 0130 0130 0130 0130  .0.0.0.0.0.0.0.0
	0x0060:  0130 0138 0165 0166 0369 7036 0461 7270  .0.8.e.f.ip6.arp
	0x0070:  6100 000c 0001                           a.....
02:17:01.760756 IP 10.0.0.3.59495 > 10.0.0.10.domain: 31170+ PTR? 10.0.0.10.in-addr.arpa. (40)
	0x0000:  4500 0044 7c0c 4000 4011 aa90 0a00 0003  E..D|.@.@.......
	0x0010:  0a00 000a e867 0035 0030 b16f 79c2 0100  .....g.5.0.oy...
	0x0020:  0001 0000 0000 0000 0231 3001 3001 3002  .........10.0.0.
	0x0030:  3130 0769 6e2d 6164 6472 0461 7270 6100  10.in-addr.arpa.
	0x0040:  000c 0001                                ....
02:17:03.769929 IP 10.0.0.1 > 10.0.0.3: ICMP echo request, id 4818, seq 3, length 64
	0x0000:  4500 0054 0000 4000 4001 26a6 0a00 0001  E..T..@.@.&.....
	0x0010:  0a00 0003 0800 3891 12d2 0003 8fb5 3e52  ......8.......>R
	0x0020:  0000 0000 14bf 0b00 0000 0000 1011 1213  ................
	0x0030:  1415 1617 1819 1a1b 1c1d 1e1f 2021 2223  .............!"#
	0x0040:  2425 2627 2829 2a2b 2c2d 2e2f 3031 3233  $%&'()*+,-./0123
	0x0050:  3435 3637                                4567
02:17:03.769939 IP 10.0.0.3 > 10.0.0.1: ICMP echo reply, id 4818, seq 3, length 64
	0x0000:  4500 0054 ed00 0000 4001 79a5 0a00 0003  E..T....@.y.....
	0x0010:  0a00 0001 0000 4091 12d2 0003 8fb5 3e52  ......@.......>R
	0x0020:  0000 0000 14bf 0b00 0000 0000 1011 1213  ................
	0x0030:  1415 1617 1819 1a1b 1c1d 1e1f 2021 2223  .............!"#
	0x0040:  2425 2627 2829 2a2b 2c2d 2e2f 3031 3233  $%&'()*+,-./0123
	0x0050:  3435 3637                                4567
02:17:06.765837 IP 10.0.0.3.59728 > 10.0.0.10.domain: 31170+ PTR? 10.0.0.10.in-addr.arpa. (40)
	0x0000:  4500 0044 80ef 4000 4011 a5ad 0a00 0003  E..D..@.@.......
	0x0010:  0a00 000a e950 0035 0030 b086 79c2 0100  .....P.5.0..y...
	0x0020:  0001 0000 0000 0000 0231 3001 3001 3002  .........10.0.0.
	0x0030:  3130 0769 6e2d 6164 6472 0461 7270 6100  10.in-addr.arpa.
	0x0040:  000c 0001                                ....
02:17:11.771146 IP 10.0.0.3.56319 > 10.0.0.10.domain: 43640+ PTR? 3.0.0.10.in-addr.arpa. (39)
	0x0000:  4500 0043 85d2 4000 4011 a0cb 0a00 0003  E..C..@.@.......
	0x0010:  0a00 000a dbff 0035 002f e1fd aa78 0100  .......5./...x..
	0x0020:  0001 0000 0000 0000 0133 0130 0130 0231  .........3.0.0.1
	0x0030:  3007 696e 2d61 6464 7204 6172 7061 0000  0.in-addr.arpa..
	0x0040:  0c00 01                                  ...
02:17:13.777658 IP 10.0.0.1 > 10.0.0.3: ICMP echo request, id 4818, seq 4, length 64
	0x0000:  4500 0054 0000 4000 4001 26a6 0a00 0001  E..T..@.@.&.....
	0x0010:  0a00 0003 0800 7b72 12d2 0004 99b5 3e52  ......{r......>R
	0x0020:  0000 0000 c7dc 0b00 0000 0000 1011 1213  ................
	0x0030:  1415 1617 1819 1a1b 1c1d 1e1f 2021 2223  .............!"#
	0x0040:  2425 2627 2829 2a2b 2c2d 2e2f 3031 3233  $%&'()*+,-./0123
	0x0050:  3435 3637                                4567
02:17:13.777684 IP 10.0.0.3 > 10.0.0.1: ICMP echo reply, id 4818, seq 4, length 64
	0x0000:  4500 0054 ed01 0000 4001 79a4 0a00 0003  E..T....@.y.....
	0x0010:  0a00 0001 0000 8372 12d2 0004 99b5 3e52  .......r......>R
	0x0020:  0000 0000 c7dc 0b00 0000 0000 1011 1213  ................
	0x0030:  1415 1617 1819 1a1b 1c1d 1e1f 2021 2223  .............!"#
	0x0040:  2425 2627 2829 2a2b 2c2d 2e2f 3031 3233  $%&'()*+,-./0123
	0x0050:  3435 3637                                4567
02:17:16.776267 IP 10.0.0.3.59549 > 10.0.0.10.domain: 43640+ PTR? 3.0.0.10.in-addr.arpa. (39)
	0x0000:  4500 0043 8ab6 4000 4011 9be7 0a00 0003  E..C..@.@.......
	0x0010:  0a00 000a e89d 0035 002f d55f aa78 0100  .......5./._.x..
	0x0020:  0001 0000 0000 0000 0133 0130 0130 0231  .........3.0.0.1
	0x0030:  3007 696e 2d61 6464 7204 6172 7061 0000  0.in-addr.arpa..
	0x0040:  0c00 01                                  ...
02:17:21.781828 IP 10.0.0.3.56454 > 10.0.0.10.domain: 50956+ PTR? f.3.6.6.3.9.f.f.1.0.0.0.0.0.0.0.0.0.0.0.0.0.0.0.0.0.0.0.2.0.f.f.ip6.arpa. (90)
	0x0000:  4500 0076 8f99 4000 4011 96d1 0a00 0003  E..v..@.@.......
	0x0010:  0a00 000a dc86 0035 0062 d3a9 c70c 0100  .......5.b......
	0x0020:  0001 0000 0000 0000 0166 0133 0136 0136  .........f.3.6.6
	0x0030:  0133 0139 0166 0166 0131 0130 0130 0130  .3.9.f.f.1.0.0.0
	0x0040:  0130 0130 0130 0130 0130 0130 0130 0130  .0.0.0.0.0.0.0.0
	0x0050:  0130 0130 0130 0130 0130 0130 0130 0130  .0.0.0.0.0.0.0.0
	0x0060:  0132 0130 0166 0166 0369 7036 0461 7270  .2.0.f.f.ip6.arp
	0x0070:  6100 000c 0001                           a.....
02:17:23.789856 IP 10.0.0.1 > 10.0.0.3: ICMP echo request, id 4818, seq 5, length 64
	0x0000:  4500 0054 0000 4000 4001 26a6 0a00 0001  E..T..@.@.&.....
	0x0010:  0a00 0003 0800 f341 12d2 0005 a3b5 3e52  .......A......>R
	0x0020:  0000 0000 450c 0c00 0000 0000 1011 1213  ....E...........
	0x0030:  1415 1617 1819 1a1b 1c1d 1e1f 2021 2223  .............!"#
	0x0040:  2425 2627 2829 2a2b 2c2d 2e2f 3031 3233  $%&'()*+,-./0123
	0x0050:  3435 3637                                4567
02:17:23.789879 IP 10.0.0.3 > 10.0.0.1: ICMP echo reply, id 4818, seq 5, length 64
	0x0000:  4500 0054 ed02 0000 4001 79a3 0a00 0003  E..T....@.y.....
	0x0010:  0a00 0001 0000 fb41 12d2 0005 a3b5 3e52  .......A......>R
	0x0020:  0000 0000 450c 0c00 0000 0000 1011 1213  ....E...........
	0x0030:  1415 1617 1819 1a1b 1c1d 1e1f 2021 2223  .............!"#
	0x0040:  2425 2627 2829 2a2b 2c2d 2e2f 3031 3233  $%&'()*+,-./0123
	0x0050:  3435 3637                                4567
02:17:26.783697 IP 10.0.0.3.37702 > 10.0.0.10.domain: 50956+ PTR? f.3.6.6.3.9.f.f.1.0.0.0.0.0.0.0.0.0.0.0.0.0.0.0.0.0.0.0.2.0.f.f.ip6.arpa. (90)
	0x0000:  4500 0076 947c 4000 4011 91ee 0a00 0003  E..v.|@.@.......
	0x0010:  0a00 000a 9346 0035 0062 1cea c70c 0100  .....F.5.b......
	0x0020:  0001 0000 0000 0000 0166 0133 0136 0136  .........f.3.6.6
	0x0030:  0133 0139 0166 0166 0131 0130 0130 0130  .3.9.f.f.1.0.0.0
	0x0040:  0130 0130 0130 0130 0130 0130 0130 0130  .0.0.0.0.0.0.0.0
	0x0050:  0130 0130 0130 0130 0130 0130 0130 0130  .0.0.0.0.0.0.0.0
	0x0060:  0132 0130 0166 0166 0369 7036 0461 7270  .2.0.f.f.ip6.arp
	0x0070:  6100 000c 0001                           a.....
02:17:31.788970 IP 10.0.0.3.43176 > 10.0.0.10.domain: 24088+ PTR? f.3.6.6.3.9.e.f.f.f.4.f.8.c.8.2.0.0.0.0.0.0.0.0.0.0.0.0.0.8.e.f.ip6.arpa. (90)
	0x0000:  4500 0076 995f 4000 4011 8d0b 0a00 0003  E..v._@.@.......
	0x0010:  0a00 000a a8a8 0035 0062 6f8e 5e18 0100  .......5.bo.^...
	0x0020:  0001 0000 0000 0000 0166 0133 0136 0136  .........f.3.6.6
	0x0030:  0133 0139 0165 0166 0166 0166 0134 0166  .3.9.e.f.f.f.4.f
	0x0040:  0138 0163 0138 0132 0130 0130 0130 0130  .8.c.8.2.0.0.0.0
	0x0050:  0130 0130 0130 0130 0130 0130 0130 0130  .0.0.0.0.0.0.0.0
	0x0060:  0130 0138 0165 0166 0369 7036 0461 7270  .0.8.e.f.ip6.arp
	0x0070:  6100 000c 0001                           a.....
02:17:41.795655 IP 10.0.0.3.55002 > 10.0.0.10.domain: 20561+ PTR? 1.0.0.10.in-addr.arpa. (39)
	0x0000:  4500 0043 a325 4000 4011 8378 0a00 0003  E..C.%@.@..x....
	0x0010:  0a00 000a d6da 0035 002f 414c 5051 0100  .......5./ALPQ..
	0x0020:  0001 0000 0000 0000 0131 0130 0130 0231  .........1.0.0.1
	0x0030:  3007 696e 2d61 6464 7204 6172 7061 0000  0.in-addr.arpa..
	0x0040:  0c00 01                                  ...
02:17:43.895478 IP 10.0.0.2 > 10.0.0.3: ICMP echo request, id 4831, seq 2, length 64
	0x0000:  4500 0054 0000 4000 4001 26a5 0a00 0002  E..T..@.@.&.....
	0x0010:  0a00 0003 0800 a09a 12df 0002 b7b5 3e52  ..............>R
	0x0020:  0000 0000 82a9 0d00 0000 0000 1011 1213  ................
	0x0030:  1415 1617 1819 1a1b 1c1d 1e1f 2021 2223  .............!"#
	0x0040:  2425 2627 2829 2a2b 2c2d 2e2f 3031 3233  $%&'()*+,-./0123
	0x0050:  3435 3637                                4567
02:17:43.895490 IP 10.0.0.3 > 10.0.0.2: ICMP echo reply, id 4831, seq 2, length 64
	0x0000:  4500 0054 fcae 0000 4001 69f6 0a00 0003  E..T....@.i.....
	0x0010:  0a00 0002 0000 a89a 12df 0002 b7b5 3e52  ..............>R
	0x0020:  0000 0000 82a9 0d00 0000 0000 1011 1213  ................
	0x0030:  1415 1617 1819 1a1b 1c1d 1e1f 2021 2223  .............!"#
	0x0040:  2425 2627 2829 2a2b 2c2d 2e2f 3031 3233  $%&'()*+,-./0123
	0x0050:  3435 3637                                4567
02:17:51.806363 IP 10.0.0.3.50485 > 10.0.0.10.domain: 59775+ PTR? 6.1.0.0.0.0.0.0.0.0.0.0.0.0.0.0.0.0.0.0.0.0.0.0.0.0.0.0.2.0.f.f.ip6.arpa. (90)
	0x0000:  4500 0076 aceb 4000 4011 797f 0a00 0003  E..v..@.@.y.....
	0x0010:  0a00 000a c535 0035 0062 c93e e97f 0100  .....5.5.b.>....
	0x0020:  0001 0000 0000 0000 0136 0131 0130 0130  .........6.1.0.0
	0x0030:  0130 0130 0130 0130 0130 0130 0130 0130  .0.0.0.0.0.0.0.0
	0x0040:  0130 0130 0130 0130 0130 0130 0130 0130  .0.0.0.0.0.0.0.0
	0x0050:  0130 0130 0130 0130 0130 0130 0130 0130  .0.0.0.0.0.0.0.0
	0x0060:  0132 0130 0166 0166 0369 7036 0461 7270  .2.0.f.f.ip6.arp
	0x0070:  6100 000c 0001                           a.....
02:17:53.903339 IP 10.0.0.2 > 10.0.0.3: ICMP echo request, id 4831, seq 3, length 64
	0x0000:  4500 0054 0000 4000 4001 26a5 0a00 0002  E..T..@.@.&.....
	0x0010:  0a00 0003 0800 d77a 12df 0003 c1b5 3e52  .......z......>R
	0x0020:  0000 0000 41c8 0d00 0000 0000 1011 1213  ....A...........
	0x0030:  1415 1617 1819 1a1b 1c1d 1e1f 2021 2223  .............!"#
	0x0040:  2425 2627 2829 2a2b 2c2d 2e2f 3031 3233  $%&'()*+,-./0123
	0x0050:  3435 3637                                4567
02:17:53.903349 IP 10.0.0.3 > 10.0.0.2: ICMP echo reply, id 4831, seq 3, length 64
	0x0000:  4500 0054 fcaf 0000 4001 69f5 0a00 0003  E..T....@.i.....
	0x0010:  0a00 0002 0000 df7a 12df 0003 c1b5 3e52  .......z......>R
	0x0020:  0000 0000 41c8 0d00 0000 0000 1011 1213  ....A...........
	0x0030:  1415 1617 1819 1a1b 1c1d 1e1f 2021 2223  .............!"#
	0x0040:  2425 2627 2829 2a2b 2c2d 2e2f 3031 3233  $%&'()*+,-./0123
	0x0050:  3435 3637                                4567
02:17:56.811425 IP 10.0.0.3.55809 > 10.0.0.10.domain: 59775+ PTR? 6.1.0.0.0.0.0.0.0.0.0.0.0.0.0.0.0.0.0.0.0.0.0.0.0.0.0.0.2.0.f.f.ip6.arpa. (90)
	0x0000:  4500 0076 b1cf 4000 4011 749b 0a00 0003  E..v..@.@.t.....
	0x0010:  0a00 000a da01 0035 0062 b472 e97f 0100  .......5.b.r....
	0x0020:  0001 0000 0000 0000 0136 0131 0130 0130  .........6.1.0.0
	0x0030:  0130 0130 0130 0130 0130 0130 0130 0130  .0.0.0.0.0.0.0.0
	0x0040:  0130 0130 0130 0130 0130 0130 0130 0130  .0.0.0.0.0.0.0.0
	0x0050:  0130 0130 0130 0130 0130 0130 0130 0130  .0.0.0.0.0.0.0.0
	0x0060:  0132 0130 0166 0166 0369 7036 0461 7270  .2.0.f.f.ip6.arp
	0x0070:  6100 000c 0001                           a.....
02:18:01.817214 IP 10.0.0.3.38361 > 10.0.0.10.domain: 20985+ PTR? 2.0.0.10.in-addr.arpa. (39)
	0x0000:  4500 0043 b6b2 4000 4011 6feb 0a00 0003  E..C..@.@.o.....
	0x0010:  0a00 000a 95d9 0035 002f 80a4 51f9 0100  .......5./..Q...
	0x0020:  0001 0000 0000 0000 0132 0130 0130 0231  .........2.0.0.1
	0x0030:  3007 696e 2d61 6464 7204 6172 7061 0000  0.in-addr.arpa..
	0x0040:  0c00 01                                  ...
02:18:03.914177 IP 10.0.0.2 > 10.0.0.3: ICMP echo request, id 4831, seq 4, length 64
	0x0000:  4500 0054 0000 4000 4001 26a5 0a00 0002  E..T..@.@.&.....
	0x0010:  0a00 0003 0800 f24f 12df 0004 cbb5 3e52  .......O......>R
	0x0020:  0000 0000 1cf2 0d00 0000 0000 1011 1213  ................
	0x0030:  1415 1617 1819 1a1b 1c1d 1e1f 2021 2223  .............!"#
	0x0040:  2425 2627 2829 2a2b 2c2d 2e2f 3031 3233  $%&'()*+,-./0123
	0x0050:  3435 3637                                4567
02:18:03.914189 IP 10.0.0.3 > 10.0.0.2: ICMP echo reply, id 4831, seq 4, length 64
	0x0000:  4500 0054 fcb0 0000 4001 69f4 0a00 0003  E..T....@.i.....
	0x0010:  0a00 0002 0000 fa4f 12df 0004 cbb5 3e52  .......O......>R
	0x0020:  0000 0000 1cf2 0d00 0000 0000 1011 1213  ................
	0x0030:  1415 1617 1819 1a1b 1c1d 1e1f 2021 2223  .............!"#
	0x0040:  2425 2627 2829 2a2b 2c2d 2e2f 3031 3233  $%&'()*+,-./0123
	0x0050:  3435 3637                                4567
02:18:06.822386 IP 10.0.0.3.45129 > 10.0.0.10.domain: 20985+ PTR? 2.0.0.10.in-addr.arpa. (39)
	0x0000:  4500 0043 bb95 4000 4011 6b08 0a00 0003  E..C..@.@.k.....
	0x0010:  0a00 000a b049 0035 002f 6634 51f9 0100  .....I.5./f4Q...
	0x0020:  0001 0000 0000 0000 0132 0130 0130 0231  .........2.0.0.1
	0x0030:  3007 696e 2d61 6464 7204 6172 7061 0000  0.in-addr.arpa..
	0x0040:  0c00 01                                  ...
02:18:13.926759 IP 10.0.0.2 > 10.0.0.3: ICMP echo request, id 4831, seq 5, length 64
	0x0000:  4500 0054 0000 4000 4001 26a5 0a00 0002  E..T..@.@.&.....
	0x0010:  0a00 0003 0800 471f 12df 0005 d5b5 3e52  ......G.......>R
	0x0020:  0000 0000 bd21 0e00 0000 0000 1011 1213  .....!..........
	0x0030:  1415 1617 1819 1a1b 1c1d 1e1f 2021 2223  .............!"#
	0x0040:  2425 2627 2829 2a2b 2c2d 2e2f 3031 3233  $%&'()*+,-./0123
	0x0050:  3435 3637                                4567
02:18:13.926774 IP 10.0.0.3 > 10.0.0.2: ICMP echo reply, id 4831, seq 5, length 64
	0x0000:  4500 0054 fcb1 0000 4001 69f3 0a00 0003  E..T....@.i.....
	0x0010:  0a00 0002 0000 4f1f 12df 0005 d5b5 3e52  ......O.......>R
	0x0020:  0000 0000 bd21 0e00 0000 0000 1011 1213  .....!..........
	0x0030:  1415 1617 1819 1a1b 1c1d 1e1f 2021 2223  .............!"#
	0x0040:  2425 2627 2829 2a2b 2c2d 2e2f 3031 3233  $%&'()*+,-./0123
	0x0050:  3435 3637                                4567
tcpdump: pcap_loop: The interface went down
48 packets captured
56 packets received by filter
8 packets dropped by kernel
